{
  "_format": "hh-sol-artifact-1",
  "contractName": "InsuranceNFT",
  "sourceName": "contracts/InsuranceNFT.sol",
  "abi": [
    {
      "inputs": [],
      "stateMutability": "nonpayable",
      "type": "constructor"
    },
    {
      "inputs": [
        {
          "internalType": "address",
          "name": "sender",
          "type": "address"
        },
        {
          "internalType": "uint256",
          "name": "tokenId",
          "type": "uint256"
        },
        {
          "internalType": "address",
          "name": "owner",
          "type": "address"
        }
      ],
      "name": "ERC721IncorrectOwner",
      "type": "error"
    },
    {
      "inputs": [
        {
          "internalType": "address",
          "name": "operator",
          "type": "address"
        },
        {
          "internalType": "uint256",
          "name": "tokenId",
          "type": "uint256"
        }
      ],
      "name": "ERC721InsufficientApproval",
      "type": "error"
    },
    {
      "inputs": [
        {
          "internalType": "address",
          "name": "approver",
          "type": "address"
        }
      ],
      "name": "ERC721InvalidApprover",
      "type": "error"
    },
    {
      "inputs": [
        {
          "internalType": "address",
          "name": "operator",
          "type": "address"
        }
      ],
      "name": "ERC721InvalidOperator",
      "type": "error"
    },
    {
      "inputs": [
        {
          "internalType": "address",
          "name": "owner",
          "type": "address"
        }
      ],
      "name": "ERC721InvalidOwner",
      "type": "error"
    },
    {
      "inputs": [
        {
          "internalType": "address",
          "name": "receiver",
          "type": "address"
        }
      ],
      "name": "ERC721InvalidReceiver",
      "type": "error"
    },
    {
      "inputs": [
        {
          "internalType": "address",
          "name": "sender",
          "type": "address"
        }
      ],
      "name": "ERC721InvalidSender",
      "type": "error"
    },
    {
      "inputs": [
        {
          "internalType": "uint256",
          "name": "tokenId",
          "type": "uint256"
        }
      ],
      "name": "ERC721NonexistentToken",
      "type": "error"
    },
    {
      "inputs": [
        {
          "internalType": "address",
          "name": "owner",
          "type": "address"
        }
      ],
      "name": "OwnableInvalidOwner",
      "type": "error"
    },
    {
      "inputs": [
        {
          "internalType": "address",
          "name": "account",
          "type": "address"
        }
      ],
      "name": "OwnableUnauthorizedAccount",
      "type": "error"
    },
    {
      "anonymous": false,
      "inputs": [
        {
          "indexed": true,
          "internalType": "address",
          "name": "owner",
          "type": "address"
        },
        {
          "indexed": true,
          "internalType": "address",
          "name": "approved",
          "type": "address"
        },
        {
          "indexed": true,
          "internalType": "uint256",
          "name": "tokenId",
          "type": "uint256"
        }
      ],
      "name": "Approval",
      "type": "event"
    },
    {
      "anonymous": false,
      "inputs": [
        {
          "indexed": true,
          "internalType": "address",
          "name": "owner",
          "type": "address"
        },
        {
          "indexed": true,
          "internalType": "address",
          "name": "operator",
          "type": "address"
        },
        {
          "indexed": false,
          "internalType": "bool",
          "name": "approved",
          "type": "bool"
        }
      ],
      "name": "ApprovalForAll",
      "type": "event"
    },
    {
      "anonymous": false,
      "inputs": [
        {
          "indexed": true,
          "internalType": "address",
          "name": "user",
          "type": "address"
        },
        {
          "indexed": false,
          "internalType": "uint256",
          "name": "premium",
          "type": "uint256"
        },
        {
          "indexed": false,
          "internalType": "uint256",
          "name": "tokenId",
          "type": "uint256"
        }
      ],
      "name": "InsurancePurchased",
      "type": "event"
    },
    {
      "anonymous": false,
      "inputs": [
        {
          "indexed": true,
          "internalType": "address",
          "name": "previousOwner",
          "type": "address"
        },
        {
          "indexed": true,
          "internalType": "address",
          "name": "newOwner",
          "type": "address"
        }
      ],
      "name": "OwnershipTransferred",
      "type": "event"
    },
    {
      "anonymous": false,
      "inputs": [
        {
          "indexed": true,
          "internalType": "address",
          "name": "from",
          "type": "address"
        },
        {
          "indexed": true,
          "internalType": "address",
          "name": "to",
          "type": "address"
        },
        {
          "indexed": true,
          "internalType": "uint256",
          "name": "tokenId",
          "type": "uint256"
        }
      ],
      "name": "Transfer",
      "type": "event"
    },
    {
      "inputs": [
        {
          "internalType": "address",
          "name": "to",
          "type": "address"
        },
        {
          "internalType": "uint256",
          "name": "tokenId",
          "type": "uint256"
        }
      ],
      "name": "approve",
      "outputs": [],
      "stateMutability": "nonpayable",
      "type": "function"
    },
    {
      "inputs": [
        {
          "internalType": "address",
          "name": "owner",
          "type": "address"
        }
      ],
      "name": "balanceOf",
      "outputs": [
        {
          "internalType": "uint256",
          "name": "",
          "type": "uint256"
        }
      ],
      "stateMutability": "view",
      "type": "function"
    },
    {
      "inputs": [
        {
          "internalType": "uint256",
          "name": "tokenId",
          "type": "uint256"
        }
      ],
      "name": "getApproved",
      "outputs": [
        {
          "internalType": "address",
          "name": "",
          "type": "address"
        }
      ],
      "stateMutability": "view",
      "type": "function"
    },
    {
      "inputs": [
        {
          "internalType": "uint256",
          "name": "tokenId",
          "type": "uint256"
        }
      ],
      "name": "getPremium",
      "outputs": [
        {
          "internalType": "uint256",
          "name": "",
          "type": "uint256"
        }
      ],
      "stateMutability": "view",
      "type": "function"
    },
    {
      "inputs": [
        {
          "internalType": "address",
          "name": "",
          "type": "address"
        }
      ],
      "name": "insuredUsers",
      "outputs": [
        {
          "internalType": "bool",
          "name": "",
          "type": "bool"
        }
      ],
      "stateMutability": "view",
      "type": "function"
    },
    {
      "inputs": [
        {
          "internalType": "address",
          "name": "owner",
          "type": "address"
        },
        {
          "internalType": "address",
          "name": "operator",
          "type": "address"
        }
      ],
      "name": "isApprovedForAll",
      "outputs": [
        {
          "internalType": "bool",
          "name": "",
          "type": "bool"
        }
      ],
      "stateMutability": "view",
      "type": "function"
    },
    {
      "inputs": [],
      "name": "name",
      "outputs": [
        {
          "internalType": "string",
          "name": "",
          "type": "string"
        }
      ],
      "stateMutability": "view",
      "type": "function"
    },
    {
      "inputs": [],
      "name": "owner",
      "outputs": [
        {
          "internalType": "address",
          "name": "",
          "type": "address"
        }
      ],
      "stateMutability": "view",
      "type": "function"
    },
    {
      "inputs": [
        {
          "internalType": "uint256",
          "name": "tokenId",
          "type": "uint256"
        }
      ],
      "name": "ownerOf",
      "outputs": [
        {
          "internalType": "address",
          "name": "",
          "type": "address"
        }
      ],
      "stateMutability": "view",
      "type": "function"
    },
    {
      "inputs": [],
      "name": "purchaseInsurance",
      "outputs": [],
      "stateMutability": "payable",
      "type": "function"
    },
    {
      "inputs": [],
      "name": "renounceOwnership",
      "outputs": [],
      "stateMutability": "nonpayable",
      "type": "function"
    },
    {
      "inputs": [
        {
          "internalType": "address",
          "name": "from",
          "type": "address"
        },
        {
          "internalType": "address",
          "name": "to",
          "type": "address"
        },
        {
          "internalType": "uint256",
          "name": "tokenId",
          "type": "uint256"
        }
      ],
      "name": "safeTransferFrom",
      "outputs": [],
      "stateMutability": "nonpayable",
      "type": "function"
    },
    {
      "inputs": [
        {
          "internalType": "address",
          "name": "from",
          "type": "address"
        },
        {
          "internalType": "address",
          "name": "to",
          "type": "address"
        },
        {
          "internalType": "uint256",
          "name": "tokenId",
          "type": "uint256"
        },
        {
          "internalType": "bytes",
          "name": "data",
          "type": "bytes"
        }
      ],
      "name": "safeTransferFrom",
      "outputs": [],
      "stateMutability": "nonpayable",
      "type": "function"
    },
    {
      "inputs": [
        {
          "internalType": "address",
          "name": "operator",
          "type": "address"
        },
        {
          "internalType": "bool",
          "name": "approved",
          "type": "bool"
        }
      ],
      "name": "setApprovalForAll",
      "outputs": [],
      "stateMutability": "nonpayable",
      "type": "function"
    },
    {
      "inputs": [
        {
          "internalType": "bytes4",
          "name": "interfaceId",
          "type": "bytes4"
        }
      ],
      "name": "supportsInterface",
      "outputs": [
        {
          "internalType": "bool",
          "name": "",
          "type": "bool"
        }
      ],
      "stateMutability": "view",
      "type": "function"
    },
    {
      "inputs": [],
      "name": "symbol",
      "outputs": [
        {
          "internalType": "string",
          "name": "",
          "type": "string"
        }
      ],
      "stateMutability": "view",
      "type": "function"
    },
    {
      "inputs": [],
      "name": "tokenCounter",
      "outputs": [
        {
          "internalType": "uint256",
          "name": "",
          "type": "uint256"
        }
      ],
      "stateMutability": "view",
      "type": "function"
    },
    {
      "inputs": [
        {
          "internalType": "uint256",
          "name": "",
          "type": "uint256"
        }
      ],
      "name": "tokenToPremium",
      "outputs": [
        {
          "internalType": "uint256",
          "name": "",
          "type": "uint256"
        }
      ],
      "stateMutability": "view",
      "type": "function"
    },
    {
      "inputs": [
        {
          "internalType": "uint256",
          "name": "tokenId",
          "type": "uint256"
        }
      ],
      "name": "tokenURI",
      "outputs": [
        {
          "internalType": "string",
          "name": "",
          "type": "string"
        }
      ],
      "stateMutability": "view",
      "type": "function"
    },
    {
      "inputs": [
        {
          "internalType": "address",
          "name": "from",
          "type": "address"
        },
        {
          "internalType": "address",
          "name": "to",
          "type": "address"
        },
        {
          "internalType": "uint256",
          "name": "tokenId",
          "type": "uint256"
        }
      ],
      "name": "transferFrom",
      "outputs": [],
      "stateMutability": "nonpayable",
      "type": "function"
    },
    {
      "inputs": [
        {
          "internalType": "address",
          "name": "newOwner",
          "type": "address"
        }
      ],
      "name": "transferOwnership",
      "outputs": [],
      "stateMutability": "nonpayable",
      "type": "function"
    },
    {
      "inputs": [],
      "name": "withdrawFunds",
      "outputs": [],
      "stateMutability": "nonpayable",
      "type": "function"
    }
  ],
  "bytecode": "0x60806040523480156200001157600080fd5b50336040518060400160405280600c81526020017f496e737572616e63654e465400000000000000000000000000000000000000008152506040518060400160405280600481526020017f494e46540000000000000000000000000000000000000000000000000000000081525081600090816200009091906200047a565b508060019081620000a291906200047a565b505050600073ffffffffffffffffffffffffffffffffffffffff168173ffffffffffffffffffffffffffffffffffffffff16036200011a5760006040517f1e4fbdf7000000000000000000000000000000000000000000000000000000008152600401620001119190620005a6565b60405180910390fd5b6200012b816200013a60201b60201c565b506001600781905550620005c3565b6000600660009054906101000a900473ffffffffffffffffffffffffffffffffffffffff16905081600660006101000a81548173ffffffffffffffffffffffffffffffffffffffff021916908373ffffffffffffffffffffffffffffffffffffffff1602179055508173ffffffffffffffffffffffffffffffffffffffff168173ffffffffffffffffffffffffffffffffffffffff167f8be0079c531659141344cd1fd0a4f28419497f9722a3daafe3b4186f6b6457e060405160405180910390a35050565b600081519050919050565b7f4e487b7100000000000000000000000000000000000000000000000000000000600052604160045260246000fd5b7f4e487b7100000000000000000000000000000000000000000000000000000000600052602260045260246000fd5b600060028204905060018216806200028257607f821691505b6020821081036200029857620002976200023a565b5b50919050565b60008190508160005260206000209050919050565b60006020601f8301049050919050565b600082821b905092915050565b600060088302620003027fffffffffffffffffffffffffffffffffffffffffffffffffffffffffffffffff82620002c3565b6200030e8683620002c3565b95508019841693508086168417925050509392505050565b6000819050919050565b6000819050919050565b60006200035b620003556200034f8462000326565b62000330565b62000326565b9050919050565b6000819050919050565b62000377836200033a565b6200038f620003868262000362565b848454620002d0565b825550505050565b600090565b620003a662000397565b620003b38184846200036c565b505050565b5b81811015620003db57620003cf6000826200039c565b600181019050620003b9565b5050565b601f8211156200042a57620003f4816200029e565b620003ff84620002b3565b810160208510156200040f578190505b620004276200041e85620002b3565b830182620003b8565b50505b505050565b600082821c905092915050565b60006200044f600019846008026200042f565b1980831691505092915050565b60006200046a83836200043c565b9150826002028217905092915050565b620004858262000200565b67ffffffffffffffff811115620004a157620004a06200020b565b5b620004ad825462000269565b620004ba828285620003df565b600060209050601f831160018114620004f25760008415620004dd578287015190505b620004e985826200045c565b86555062000559565b601f19841662000502866200029e565b60005b828110156200052c5784890151825560018201915060208501945060208101905062000505565b868310156200054c578489015162000548601f8916826200043c565b8355505b6001600288020188555050505b505050505050565b600073ffffffffffffffffffffffffffffffffffffffff82169050919050565b60006200058e8262000561565b9050919050565b620005a08162000581565b82525050565b6000602082019050620005bd600083018462000595565b92915050565b61262e80620005d36000396000f3fe6080604052600436106101355760003560e01c806382b1c6c3116100ab578063c87b56dd1161006f578063c87b56dd14610424578063d082e38114610461578063e985e9c51461048c578063edb8fb44146104c9578063f2fde38b146104d3578063fa1d01a4146104fc57610135565b806382b1c6c31461033f5780638da5cb5b1461037c57806395d89b41146103a7578063a22cb465146103d2578063b88d4fde146103fb57610135565b806323b872dd116100fd57806323b872dd1461024557806324600fc31461026e57806342842e0e146102855780636352211e146102ae57806370a08231146102eb578063715018a61461032857610135565b806301ffc9a71461013a57806306fdde0314610177578063081812fc146101a2578063095ea7b3146101df5780631bf1fffb14610208575b600080fd5b34801561014657600080fd5b50610161600480360381019061015c9190611d00565b610539565b60405161016e9190611d48565b60405180910390f35b34801561018357600080fd5b5061018c61061b565b6040516101999190611df3565b60405180910390f35b3480156101ae57600080fd5b506101c960048036038101906101c49190611e4b565b6106ad565b6040516101d69190611eb9565b60405180910390f35b3480156101eb57600080fd5b5061020660048036038101906102019190611f00565b6106c9565b005b34801561021457600080fd5b5061022f600480360381019061022a9190611e4b565b6106df565b60405161023c9190611f4f565b60405180910390f35b34801561025157600080fd5b5061026c60048036038101906102679190611f6a565b6106fc565b005b34801561027a57600080fd5b506102836107fe565b005b34801561029157600080fd5b506102ac60048036038101906102a79190611f6a565b610856565b005b3480156102ba57600080fd5b506102d560048036038101906102d09190611e4b565b610876565b6040516102e29190611eb9565b60405180910390f35b3480156102f757600080fd5b50610312600480360381019061030d9190611fbd565b610888565b60405161031f9190611f4f565b60405180910390f35b34801561033457600080fd5b5061033d610942565b005b34801561034b57600080fd5b5061036660048036038101906103619190611e4b565b610956565b6040516103739190611f4f565b60405180910390f35b34801561038857600080fd5b5061039161096e565b60405161039e9190611eb9565b60405180910390f35b3480156103b357600080fd5b506103bc610998565b6040516103c99190611df3565b60405180910390f35b3480156103de57600080fd5b506103f960048036038101906103f49190612016565b610a2a565b005b34801561040757600080fd5b50610422600480360381019061041d919061218b565b610a40565b005b34801561043057600080fd5b5061044b60048036038101906104469190611e4b565b610a65565b6040516104589190611df3565b60405180910390f35b34801561046d57600080fd5b50610476610ace565b6040516104839190611f4f565b60405180910390f35b34801561049857600080fd5b506104b360048036038101906104ae919061220e565b610ad4565b6040516104c09190611d48565b60405180910390f35b6104d1610b68565b005b3480156104df57600080fd5b506104fa60048036038101906104f59190611fbd565b610d24565b005b34801561050857600080fd5b50610523600480360381019061051e9190611fbd565b610daa565b6040516105309190611d48565b60405180910390f35b60007f80ac58cd000000000000000000000000000000000000000000000000000000007bffffffffffffffffffffffffffffffffffffffffffffffffffffffff1916827bffffffffffffffffffffffffffffffffffffffffffffffffffffffff1916148061060457507f5b5e139f000000000000000000000000000000000000000000000000000000007bffffffffffffffffffffffffffffffffffffffffffffffffffffffff1916827bffffffffffffffffffffffffffffffffffffffffffffffffffffffff1916145b80610614575061061382610dca565b5b9050919050565b60606000805461062a9061227d565b80601f01602080910402602001604051908101604052809291908181526020018280546106569061227d565b80156106a35780601f10610678576101008083540402835291602001916106a3565b820191906000526020600020905b81548152906001019060200180831161068657829003601f168201915b5050505050905090565b60006106b882610e34565b506106c282610ebc565b9050919050565b6106db82826106d6610ef9565b610f01565b5050565b600060096000838152602001908152602001600020549050919050565b600073ffffffffffffffffffffffffffffffffffffffff168273ffffffffffffffffffffffffffffffffffffffff160361076e5760006040517f64a0ae920000000000000000000000000000000000000000000000000000000081526004016107659190611eb9565b60405180910390fd5b6000610782838361077d610ef9565b610f13565b90508373ffffffffffffffffffffffffffffffffffffffff168173ffffffffffffffffffffffffffffffffffffffff16146107f8578382826040517f64283d7b0000000000000000000000000000000000000000000000000000000081526004016107ef939291906122ae565b60405180910390fd5b50505050565b61080661112d565b61080e61096e565b73ffffffffffffffffffffffffffffffffffffffff166108fc479081150290604051600060405180830381858888f19350505050158015610853573d6000803e3d6000fd5b50565b61087183838360405180602001604052806000815250610a40565b505050565b600061088182610e34565b9050919050565b60008073ffffffffffffffffffffffffffffffffffffffff168273ffffffffffffffffffffffffffffffffffffffff16036108fb5760006040517f89c62b640000000000000000000000000000000000000000000000000000000081526004016108f29190611eb9565b60405180910390fd5b600360008373ffffffffffffffffffffffffffffffffffffffff1673ffffffffffffffffffffffffffffffffffffffff168152602001908152602001600020549050919050565b61094a61112d565b61095460006111b4565b565b60096020528060005260406000206000915090505481565b6000600660009054906101000a900473ffffffffffffffffffffffffffffffffffffffff16905090565b6060600180546109a79061227d565b80601f01602080910402602001604051908101604052809291908181526020018280546109d39061227d565b8015610a205780601f106109f557610100808354040283529160200191610a20565b820191906000526020600020905b815481529060010190602001808311610a0357829003601f168201915b5050505050905090565b610a3c610a35610ef9565b838361127a565b5050565b610a4b8484846106fc565b610a5f610a56610ef9565b858585856113e9565b50505050565b6060610a7082610e34565b506000610a7b61159a565b90506000815111610a9b5760405180602001604052806000815250610ac6565b80610aa5846115b1565b604051602001610ab6929190612321565b6040516020818303038152906040525b915050919050565b60075481565b6000600560008473ffffffffffffffffffffffffffffffffffffffff1673ffffffffffffffffffffffffffffffffffffffff16815260200190815260200160002060008373ffffffffffffffffffffffffffffffffffffffff1673ffffffffffffffffffffffffffffffffffffffff16815260200190815260200160002060009054906101000a900460ff16905092915050565b600860003373ffffffffffffffffffffffffffffffffffffffff1673ffffffffffffffffffffffffffffffffffffffff16815260200190815260200160002060009054906101000a900460ff1615610bf5576040517f08c379a0000000000000000000000000000000000000000000000000000000008152600401610bec90612391565b60405180910390fd5b60003411610c38576040517f08c379a0000000000000000000000000000000000000000000000000000000008152600401610c2f906123fd565b60405180910390fd5b6000600754905060076000815480929190610c529061244c565b91905055506001600860003373ffffffffffffffffffffffffffffffffffffffff1673ffffffffffffffffffffffffffffffffffffffff16815260200190815260200160002060006101000a81548160ff021916908315150217905550346009600083815260200190815260200160002081905550610cd1338261167f565b3373ffffffffffffffffffffffffffffffffffffffff167f6c165bac7b911fd3865d9050099e5e033490a3e0b4a1771f691fccca2b3c0ed13483604051610d19929190612494565b60405180910390a250565b610d2c61112d565b600073ffffffffffffffffffffffffffffffffffffffff168173ffffffffffffffffffffffffffffffffffffffff1603610d9e5760006040517f1e4fbdf7000000000000000000000000000000000000000000000000000000008152600401610d959190611eb9565b60405180910390fd5b610da7816111b4565b50565b60086020528060005260406000206000915054906101000a900460ff1681565b60007f01ffc9a7000000000000000000000000000000000000000000000000000000007bffffffffffffffffffffffffffffffffffffffffffffffffffffffff1916827bffffffffffffffffffffffffffffffffffffffffffffffffffffffff1916149050919050565b600080610e408361169d565b9050600073ffffffffffffffffffffffffffffffffffffffff168173ffffffffffffffffffffffffffffffffffffffff1603610eb357826040517f7e273289000000000000000000000000000000000000000000000000000000008152600401610eaa9190611f4f565b60405180910390fd5b80915050919050565b60006004600083815260200190815260200160002060009054906101000a900473ffffffffffffffffffffffffffffffffffffffff169050919050565b600033905090565b610f0e83838360016116da565b505050565b600080610f1f8461169d565b9050600073ffffffffffffffffffffffffffffffffffffffff168373ffffffffffffffffffffffffffffffffffffffff1614610f6157610f6081848661189f565b5b600073ffffffffffffffffffffffffffffffffffffffff168173ffffffffffffffffffffffffffffffffffffffff1614610ff257610fa36000856000806116da565b6001600360008373ffffffffffffffffffffffffffffffffffffffff1673ffffffffffffffffffffffffffffffffffffffff168152602001908152602001600020600082825403925050819055505b600073ffffffffffffffffffffffffffffffffffffffff168573ffffffffffffffffffffffffffffffffffffffff1614611075576001600360008773ffffffffffffffffffffffffffffffffffffffff1673ffffffffffffffffffffffffffffffffffffffff168152602001908152602001600020600082825401925050819055505b846002600086815260200190815260200160002060006101000a81548173ffffffffffffffffffffffffffffffffffffffff021916908373ffffffffffffffffffffffffffffffffffffffff160217905550838573ffffffffffffffffffffffffffffffffffffffff168273ffffffffffffffffffffffffffffffffffffffff167fddf252ad1be2c89b69c2b068fc378daa952ba7f163c4a11628f55a4df523b3ef60405160405180910390a4809150509392505050565b611135610ef9565b73ffffffffffffffffffffffffffffffffffffffff1661115361096e565b73ffffffffffffffffffffffffffffffffffffffff16146111b257611176610ef9565b6040517f118cdaa70000000000000000000000000000000000000000000000000000000081526004016111a99190611eb9565b60405180910390fd5b565b6000600660009054906101000a900473ffffffffffffffffffffffffffffffffffffffff16905081600660006101000a81548173ffffffffffffffffffffffffffffffffffffffff021916908373ffffffffffffffffffffffffffffffffffffffff1602179055508173ffffffffffffffffffffffffffffffffffffffff168173ffffffffffffffffffffffffffffffffffffffff167f8be0079c531659141344cd1fd0a4f28419497f9722a3daafe3b4186f6b6457e060405160405180910390a35050565b600073ffffffffffffffffffffffffffffffffffffffff168273ffffffffffffffffffffffffffffffffffffffff16036112eb57816040517f5b08ba180000000000000000000000000000000000000000000000000000000081526004016112e29190611eb9565b60405180910390fd5b80600560008573ffffffffffffffffffffffffffffffffffffffff1673ffffffffffffffffffffffffffffffffffffffff16815260200190815260200160002060008473ffffffffffffffffffffffffffffffffffffffff1673ffffffffffffffffffffffffffffffffffffffff16815260200190815260200160002060006101000a81548160ff0219169083151502179055508173ffffffffffffffffffffffffffffffffffffffff168373ffffffffffffffffffffffffffffffffffffffff167f17307eab39ab6107e8899845ad3d59bd9653f200f220920489ca2b5937696c31836040516113dc9190611d48565b60405180910390a3505050565b60008373ffffffffffffffffffffffffffffffffffffffff163b1115611593578273ffffffffffffffffffffffffffffffffffffffff1663150b7a02868685856040518563ffffffff1660e01b81526004016114489493929190612512565b6020604051808303816000875af192505050801561148457506040513d601f19601f820116820180604052508101906114819190612573565b60015b611508573d80600081146114b4576040519150601f19603f3d011682016040523d82523d6000602084013e6114b9565b606091505b50600081510361150057836040517f64a0ae920000000000000000000000000000000000000000000000000000000081526004016114f79190611eb9565b60405180910390fd5b805181602001fd5b63150b7a0260e01b7bffffffffffffffffffffffffffffffffffffffffffffffffffffffff1916817bffffffffffffffffffffffffffffffffffffffffffffffffffffffff19161461159157836040517f64a0ae920000000000000000000000000000000000000000000000000000000081526004016115889190611eb9565b60405180910390fd5b505b5050505050565b606060405180602001604052806000815250905090565b6060600060016115c084611963565b01905060008167ffffffffffffffff8111156115df576115de612060565b5b6040519080825280601f01601f1916602001820160405280156116115781602001600182028036833780820191505090505b509050600082602001820190505b600115611674578080600190039150507f3031323334353637383961626364656600000000000000000000000000000000600a86061a8153600a8581611668576116676125a0565b5b0494506000850361161f575b819350505050919050565b611699828260405180602001604052806000815250611ab6565b5050565b60006002600083815260200190815260200160002060009054906101000a900473ffffffffffffffffffffffffffffffffffffffff169050919050565b80806117135750600073ffffffffffffffffffffffffffffffffffffffff168273ffffffffffffffffffffffffffffffffffffffff1614155b1561184757600061172384610e34565b9050600073ffffffffffffffffffffffffffffffffffffffff168373ffffffffffffffffffffffffffffffffffffffff161415801561178e57508273ffffffffffffffffffffffffffffffffffffffff168173ffffffffffffffffffffffffffffffffffffffff1614155b80156117a1575061179f8184610ad4565b155b156117e357826040517fa9fbf51f0000000000000000000000000000000000000000000000000000000081526004016117da9190611eb9565b60405180910390fd5b811561184557838573ffffffffffffffffffffffffffffffffffffffff168273ffffffffffffffffffffffffffffffffffffffff167f8c5be1e5ebec7d5bd14f71427d1e84f3dd0314c0f7b2291e5b200ac8c7c3b92560405160405180910390a45b505b836004600085815260200190815260200160002060006101000a81548173ffffffffffffffffffffffffffffffffffffffff021916908373ffffffffffffffffffffffffffffffffffffffff16021790555050505050565b6118aa838383611ada565b61195e57600073ffffffffffffffffffffffffffffffffffffffff168373ffffffffffffffffffffffffffffffffffffffff160361191f57806040517f7e2732890000000000000000000000000000000000000000000000000000000081526004016119169190611f4f565b60405180910390fd5b81816040517f177e802f0000000000000000000000000000000000000000000000000000000081526004016119559291906125cf565b60405180910390fd5b505050565b600080600090507a184f03e93ff9f4daa797ed6e38ed64bf6a1f01000000000000000083106119c1577a184f03e93ff9f4daa797ed6e38ed64bf6a1f01000000000000000083816119b7576119b66125a0565b5b0492506040810190505b6d04ee2d6d415b85acef810000000083106119fe576d04ee2d6d415b85acef810000000083816119f4576119f36125a0565b5b0492506020810190505b662386f26fc100008310611a2d57662386f26fc100008381611a2357611a226125a0565b5b0492506010810190505b6305f5e1008310611a56576305f5e1008381611a4c57611a4b6125a0565b5b0492506008810190505b6127108310611a7b576127108381611a7157611a706125a0565b5b0492506004810190505b60648310611a9e5760648381611a9457611a936125a0565b5b0492506002810190505b600a8310611aad576001810190505b80915050919050565b611ac08383611b9b565b611ad5611acb610ef9565b60008585856113e9565b505050565b60008073ffffffffffffffffffffffffffffffffffffffff168373ffffffffffffffffffffffffffffffffffffffff1614158015611b9257508273ffffffffffffffffffffffffffffffffffffffff168473ffffffffffffffffffffffffffffffffffffffff161480611b535750611b528484610ad4565b5b80611b9157508273ffffffffffffffffffffffffffffffffffffffff16611b7983610ebc565b73ffffffffffffffffffffffffffffffffffffffff16145b5b90509392505050565b600073ffffffffffffffffffffffffffffffffffffffff168273ffffffffffffffffffffffffffffffffffffffff1603611c0d5760006040517f64a0ae92000000000000000000000000000000000000000000000000000000008152600401611c049190611eb9565b60405180910390fd5b6000611c1b83836000610f13565b9050600073ffffffffffffffffffffffffffffffffffffffff168173ffffffffffffffffffffffffffffffffffffffff1614611c8f5760006040517f73c6ac6e000000000000000000000000000000000000000000000000000000008152600401611c869190611eb9565b60405180910390fd5b505050565b6000604051905090565b600080fd5b600080fd5b60007fffffffff0000000000000000000000000000000000000000000000000000000082169050919050565b611cdd81611ca8565b8114611ce857600080fd5b50565b600081359050611cfa81611cd4565b92915050565b600060208284031215611d1657611d15611c9e565b5b6000611d2484828501611ceb565b91505092915050565b60008115159050919050565b611d4281611d2d565b82525050565b6000602082019050611d5d6000830184611d39565b92915050565b600081519050919050565b600082825260208201905092915050565b60005b83811015611d9d578082015181840152602081019050611d82565b60008484015250505050565b6000601f19601f8301169050919050565b6000611dc582611d63565b611dcf8185611d6e565b9350611ddf818560208601611d7f565b611de881611da9565b840191505092915050565b60006020820190508181036000830152611e0d8184611dba565b905092915050565b6000819050919050565b611e2881611e15565b8114611e3357600080fd5b50565b600081359050611e4581611e1f565b92915050565b600060208284031215611e6157611e60611c9e565b5b6000611e6f84828501611e36565b91505092915050565b600073ffffffffffffffffffffffffffffffffffffffff82169050919050565b6000611ea382611e78565b9050919050565b611eb381611e98565b82525050565b6000602082019050611ece6000830184611eaa565b92915050565b611edd81611e98565b8114611ee857600080fd5b50565b600081359050611efa81611ed4565b92915050565b60008060408385031215611f1757611f16611c9e565b5b6000611f2585828601611eeb565b9250506020611f3685828601611e36565b9150509250929050565b611f4981611e15565b82525050565b6000602082019050611f646000830184611f40565b92915050565b600080600060608486031215611f8357611f82611c9e565b5b6000611f9186828701611eeb565b9350506020611fa286828701611eeb565b9250506040611fb386828701611e36565b9150509250925092565b600060208284031215611fd357611fd2611c9e565b5b6000611fe184828501611eeb565b91505092915050565b611ff381611d2d565b8114611ffe57600080fd5b50565b60008135905061201081611fea565b92915050565b6000806040838503121561202d5761202c611c9e565b5b600061203b85828601611eeb565b925050602061204c85828601612001565b9150509250929050565b600080fd5b600080fd5b7f4e487b7100000000000000000000000000000000000000000000000000000000600052604160045260246000fd5b61209882611da9565b810181811067ffffffffffffffff821117156120b7576120b6612060565b5b80604052505050565b60006120ca611c94565b90506120d6828261208f565b919050565b600067ffffffffffffffff8211156120f6576120f5612060565b5b6120ff82611da9565b9050602081019050919050565b82818337600083830152505050565b600061212e612129846120db565b6120c0565b90508281526020810184848401111561214a5761214961205b565b5b61215584828561210c565b509392505050565b600082601f83011261217257612171612056565b5b813561218284826020860161211b565b91505092915050565b600080600080608085870312156121a5576121a4611c9e565b5b60006121b387828801611eeb565b94505060206121c487828801611eeb565b93505060406121d587828801611e36565b925050606085013567ffffffffffffffff8111156121f6576121f5611ca3565b5b6122028782880161215d565b91505092959194509250565b6000806040838503121561222557612224611c9e565b5b600061223385828601611eeb565b925050602061224485828601611eeb565b9150509250929050565b7f4e487b7100000000000000000000000000000000000000000000000000000000600052602260045260246000fd5b6000600282049050600182168061229557607f821691505b6020821081036122a8576122a761224e565b5b50919050565b60006060820190506122c36000830186611eaa565b6122d06020830185611f40565b6122dd6040830184611eaa565b949350505050565b600081905092915050565b60006122fb82611d63565b61230581856122e5565b9350612315818560208601611d7f565b80840191505092915050565b600061232d82856122f0565b915061233982846122f0565b91508190509392505050565b7f416c726561647920696e73757265640000000000000000000000000000000000600082015250565b600061237b600f83611d6e565b915061238682612345565b602082019050919050565b600060208201905081810360008301526123aa8161236e565b9050919050565b7f5072656d69756d20726571756972656400000000000000000000000000000000600082015250565b60006123e7601083611d6e565b91506123f2826123b1565b602082019050919050565b60006020820190508181036000830152612416816123da565b9050919050565b7f4e487b7100000000000000000000000000000000000000000000000000000000600052601160045260246000fd5b600061245782611e15565b91507fffffffffffffffffffffffffffffffffffffffffffffffffffffffffffffffff82036124895761248861241d565b5b600182019050919050565b60006040820190506124a96000830185611f40565b6124b66020830184611f40565b9392505050565b600081519050919050565b600082825260208201905092915050565b60006124e4826124bd565b6124ee81856124c8565b93506124fe818560208601611d7f565b61250781611da9565b840191505092915050565b60006080820190506125276000830187611eaa565b6125346020830186611eaa565b6125416040830185611f40565b818103606083015261255381846124d9565b905095945050505050565b60008151905061256d81611cd4565b92915050565b60006020828403121561258957612588611c9e565b5b60006125978482850161255e565b91505092915050565b7f4e487b7100000000000000000000000000000000000000000000000000000000600052601260045260246000fd5b60006040820190506125e46000830185611eaa565b6125f16020830184611f40565b939250505056fea2646970667358221220ddbe9a31e1a1430fe5608d1404e59ec2e0bc12eb08bf5f7bafb16c7cefdf089364736f6c63430008180033",
  "linkReferences": {},
  "deployedLinkReferences": {}
}